:020000040000FA
:10000000432AFF3FFF3F33302000DF000030E00095
:10001000B830E1000030E200A730EB000030EC0027
:100020000030ED000030EE009630E7000030E800D0
:100030000030E9000030EA00FF30E300FF30E40068
:100040000030E5000030E60023009E1690309D0051
:1000500021008C140C142000911E32282300190852
:10006000F0002B28080023009E18382800003328B1
:100070002100380823009A0008002000F801083009
:10008000FC00700DF80D7408F80203184928F807F1
:100090000310F00DFC0B4128080021003808393C02
:1000A000031C592830303802031C59280130F00055
:1000B0005A28F001080020002230FC00F801F90164
:1000C000FA01FB01FC03031990280310FB0CFA0C46
:1000D000F90CF80CF30CF20CF10CF00C031C622878
:1000E000FC03031982287408F80775080318750FB4
:1000F000F90776080318760FFA0777080318770FC1
:10010000FB0766287408F80775080318750FF907C8
:1001100076080318760FFA0777080318770FFB079E
:1001200008002930FD00FD0B932808000030200056
:10013000911A0130F000080021002E0823009100E0
:1001400092019513151315141308F00008002300ED
:100150001908F1009D1CAE281D121D167108F00033
:10016000080021002E0884002F0885000008B00038
:10017000B1010030B10000303106031DC12820302C
:1001800030060319CC2800303106031DC928093078
:1001900030060319CC28D028AE0A0319AF0AB128BB
:1001A000B201B301B401B501B601B7012E08840054
:1001B0002F08850000082D3A031DE528B60A03190B
:1001C000B70AAE0A0319AF0AF0282E0884002F08D8
:1001D000850000082B3A031DF028AE0A0319AF0A68
:1001E0002E0884002F0885000008B000B1010030FF
:1001F000B1003008B8004D20700803192B293208CF
:10020000F0003308F1003408F2003508F3000A303A
:10021000F4000030F5000030F6000030F7005B20FD
:10022000303021003002F4000030313BF50074081A
:100230007007B2007508713DB3000030F51BFF3048
:10024000723DB4000030F51BFF30733DB500AE0ABF
:100250000319AF0AF0283608370403193C29F001C6
:10026000F101F201F3013208F0023308F13B3408E6
:10027000F23B3508F33B44293208F0003308F10023
:100280003408F2003508F30008002100B4013008FA
:10029000F1000130F000710803195129F035FF3EDB
:1002A0004C297008B3002E0884002F0885007008C0
:1002B0000005F10071080130031D0030F000320824
:1002C000F00603197D293108003C03186B299120A1
:1002D0009120B10363292E0884002F08850033087C
:1002E0000005F10071080130031D0030F0003208F4
:1002F000F00603197D29FF30B4003408F00008002F
:1003000012001E00F003031D8029F103031D802944
:1003100008002100B1012E0884002F088500000884
:10032000B0003008003A0319A3293008B800332080
:100330002100B10A31082E07840000302F3D8500CE
:100340000008B0009129080021002E08F2002F08B3
:10035000F3003108F0003208F1000130B102003042
:10036000B23B700871040319BF2972088600730834
:10037000870030088100F20A0319F30AA9292E0820
:10038000F0002F08F10008002100B1010330310214
:100390000318D42931082F0786000030303D87002C
:1003A00020308100B10AC62931082F0786000030AD
:1003B000303D87008101B10331082F07B2000030C2
:1003C000303DB3000A30F4002E08F0003D207808DC
:1003D000F0003030F0072100320886003308870033
:1003E000700881000A30F4002E08F0003D207008EB
:1003F0002100AE007008003A031DFF29012AB10355
:10040000DC29080021002E08230091009201210020
:100410002F08230093001513951315150B08F000F2
:100420008B1355309600AA3096009514F01B1A2AAB
:100430008B131B2A8B171511951C1F2A1C2A0800C9
:100440005B302100990023008C010F3021009E00B9
:10045000220091019D131D1121008C160C1120000A
:100460000C1123009F1519309B0000309C001E15B5
:1004700003201130FC003A30FD00FD0B3D2AFC0B3F
:100480003D2A000008000A2620222100AE019C20FF
:1004900070082000DA000930FC001C30FD00FD0B64
:1004A0004F2AFC0B4F2A00005A08FF3A031D6F2AFF
:1004B000A7010A3027020318652A27082100AE0089
:1004C000AF0102222000A70A592A0930FC001C3083
:1004D000FD00FD0B692AFC0B692A00008B2B0C30F8
:1004E0002100AE000030AF000530B0001930B1007F
:1004F0000130B200452170080319672B20000C154C
:10050000591405302100AE009C2070082000DB004B
:100510000930FC001C30FD00FD0B8C2AFC0B8C2AE2
:10052000000006302100AE009C2070082000DC0096
:100530000930FC001C30FD00FD0B9C2AFC0B9C2AA2
:1005400000005B08F100F0015C08F0070030F13DAD
:100550007008AA007108AB0001307007F30000308A
:10056000713DF4007308AA007408AB007408F00031
:10057000F101FF307005DB00FF307305DC00053052
:100580002100AE0020005B082100AF0002220930EC
:10059000FC001C30FD00FD0BCB2AFC0BCB2A00001D
:1005A00006302100AE0020005C082100AF000222CE
:1005B0000930FC001C30FD00FD0BDC2AFC0BDC2AA2
:1005C000000007302100AE009C2070082000DD00F4
:1005D0000930FC001C30FD00FD0BEC2AFC0BEC2A62
:1005E000000008302100AE009C2070082000DE00D2
:1005F0000930FC001C30FD00FD0BFC2AFC0BFC2A22
:1006000000005D08F100F0015E08F0070030F13DE8
:100610007008A8007108A90001307007F3000030CD
:10062000713DF4007308A8007408A9007408F00074
:10063000F101FF307005DD00FF307305DE0007308B
:100640002100AE0020005D082100AF000222093029
:10065000FC001C30FD00FD0B2B2BFC0B2B2B00009A
:1006600008302100AE0020005E082100AF00022209
:100670000930FC001C30FD00FD0B3C2BFC0B3C2B1F
:1006800000005B302100AE000030AF00B00104304C
:10069000B1000030B200A4210930FC001C30FD0084
:1006A000FD0B502BFC0B502B000020000C1159109F
:1006B0000430FB00CF30FC000130FD00FD0B5E2B51
:1006C000FC0B5E2BFB0B5E2B000000008B2B5B30CA
:1006D0002100AE000030AF00B0010430B1000030A6
:1006E000B200A4210930FC001C30FD00FD0B762B6C
:1006F000FC0B762B000020000C110430FB00CF30E7
:10070000FC000130FD00FD0B832BFC0B832BFB0B4E
:10071000832B00000000962070080319562D4930E5
:100720002100AC000030AD00200020082100AC0703
:100730000318AD0AA72021002C0886002D08870089
:100740007008810020004908533A031DAD2B0B307F
:1007500020020318AD2BA00AB62B4908523A031DFC
:10076000B62B053020020318B62BA00A4908533ACD
:10077000031D632C20080B3A031D632CA7010A30CC
:1007800027020318DB2B3F30860000308700270844
:1007900086070318870A2708013EF000F1010030A0
:1007A000F13D4930700784000030713D850000083C
:1007B0008100A70ABF2B3F302100AE000030AF0000
:1007C000B12070082000A3007108A4007208A500E1
:1007D0007308A600FF307302031DF82BFF3072026E
:1007E000031DF82BFF307102031DF82BFF30700240
:1007F0000318412C2608F000F101F201F301FF304B
:100800007005D5002508F0002608F100F201F3017B
:10081000FF307005D6002408F0002508F1002608F6
:10082000F200F301FF307005D700FF302305D80038
:1008300001302100AE00200055082100AF00022247
:1008400002302100AE00200056082100AF00022235
:1008500003302100AE00200057082100AF00022223
:1008600004302100AE00200058082100AF00022211
:100870000930FC001C30FD00FD0B3C2CFC0B3C2C1B
:1008800000003F302100AE000030AF00B0010A3060
:10089000B1000030B200A4214930AE000030AF00FA
:1008A000B0010C30B1000030B200A4215530AE00D0
:1008B0000030AF00B0010430B1000030B200A4211C
:1008C0002000A001552D4908523A031D552D20083E
:1008D000053A031D552DA701053027020318882C62
:1008E0003F30860000308700270886070318870AF4
:1008F0002708013EF000F1010030F13D493070075A
:1009000084000030713D850000088100A70A6C2C2E
:100910004908523A031DE32C3F08453A031DE32CD6
:100920004008533A031DE32C4108453A031DE32CCC
:100930004208543A031DE32C09302100AE009C20EC
:1009400070082000A100A2010930FC001C30FD004D
:10095000FD0BA82CFC0BA82C0000A10A0319A20A6D
:1009600007302100AE00AF01022208302100AE00A6
:10097000AF01022209302100AE0020002108210031
:10098000AF0002220930FC001C30FD00FD0BC62C1C
:10099000FC0BC62C00003F302100AE000030AF0041
:1009A000B0010A30B1000030B200A4214930AE00DD
:1009B0000030AF00B0010C30B1000030B200A42113
:1009C0002000A001552D4908523A031D3E2D3F0835
:1009D000453A031D3E2D4008533A031D3E2D410864
:1009E000543A031D3E2D42084F3A031D3E2D093057
:1009F0002100AE009C2070082000A100A201093057
:100A0000FC001C30FD00FD0B032DFC0B032D000032
:100A1000A10A0319A20A07302100AE00AF01022289
:100A200008302100AE00AF01022209302100AE00E3
:100A3000200021082100AF0002220930FC001C30F8
:100A4000FD00FD0B212DFC0B212D00003F3021006E
:100A5000AE000030AF00B0010A30B1000030B2008B
:100A6000A4214930AE000030AF00B0010C30B1001D
:100A70000030B200A4212000A001552D3F302100FC
:100A8000AE000030AF00B0010A30B1000030B2005B
:100A9000A4214930AE000030AF00B0010C30B100ED
:100AA0000030B200A4212000A001E62D0030F000AB
:100AB0003C06031D652D70083B06031D652D70085F
:100AC0003A06031D652D3908003A031DC22D333047
:100AD0002100AE000030AF0089212000A7010930BD
:100AE00027020318B22DA0302100AC000030AD0069
:100AF000200027082100AC070318AD0A2000270AB0
:100B00002100AE009C2021002C0886002D088700C3
:100B100070088100A0308400003085002000270884
:100B200084070318850A0008F0007008EF007008B9
:100B30002100AE00A930AF000030B000C421A930C0
:100B4000AE000030AF0089210830200027020318D2
:100B5000AF2D3D302100AE000030AF0089212000D4
:100B6000A70A6F2D2E302100AE000030AF00892182
:100B70002C30AE000030AF0089212000B901BA014D
:100B8000BB01BC0196207008003A031DE62D5330CE
:100B9000FD00FD0BC92D0130B9070030BA3DBB3D4A
:100BA000BC3D0030F0003C06031DE02D70083B0604
:100BB000031DE02D70083A06031DE02D3908FA3AAE
:100BC000031DE62DB901BA01BB01BC018B2BE72D3A
:100BD000FF3FFF3FFF3F0034003400340034003457
:100BE000003400340034003400340034003426343F
:100BF0000034533454344F34503400345334543468
:100C0000413452345434003400340034003400345D
:100C10002D340034EB308400853085001F30F00027
:100C20000130F1002030860000308700802108006C
:100C3000FF3FFF3FFF3FFF3FFF3FFF3FFF3FFF3FC4
:100C4000FF3FFF3FFF3FFF3FFF3FFF3FFF3FFF3FB4
:100C5000FF3FFF3FFF3FFF3FFF3FFF3FFF3FFF3FA4
:100C6000FF3FFF3FFF3FFF3FFF3FFF3FFF3FFF3F94
:020000040001F9
:10E000000000000000001100AB000000070000004D
:10E0100001000200FF00FF00FF00FF00FF00FF0003
:10E02000FF00FF00FF00FF00FF00FF00FF00FF00F8
:10E03000FF00FF00FF00FF00FF00FF00FF00FF00E8
:10E04000FF00FF00FF00FF00FF00FF00FF00FF00D8
:10E05000FF00FF00FF00FF00FF00FF00FF00FF00C8
:10E06000FF00FF00FF00FF00FF00FF00FF00FF00B8
:10E07000FF00FF00FF00FF00FF00FF00FF00FF00A8
:10E08000FF00FF00FF00FF00FF00FF00FF00FF0098
:10E09000FF00FF00FF00FF00FF00FF00FF00FF0088
:10E0A000FF00FF00FF00FF00FF00FF00FF00FF0078
:10E0B000FF00FF00FF00FF00FF00FF00FF00FF0068
:10E0C000FF00FF00FF00FF00FF00FF00FF00FF0058
:10E0D000FF00FF00FF00FF00FF00FF00FF00FF0048
:10E0E000FF00FF00FF00FF00FF00FF00FF00FF0038
:10E0F000FF00FF00FF00FF00FF00FF00FF00FF0028
:10E10000FF00FF00FF00FF00FF00FF00FF00FF0017
:10E11000FF00FF00FF00FF00FF00FF00FF00FF0007
:10E12000FF00FF00FF00FF00FF00FF00FF00FF00F7
:10E13000FF00FF00FF00FF00FF00FF00FF00FF00E7
:10E14000FF00FF00FF00FF00FF00FF00FF00FF00D7
:10E15000FF00FF00FF00FF00FF00FF00FF00FF00C7
:10E16000FF00FF00FF00FF00FF00FF00FF00FF00B7
:10E17000FF00FF00FF00FF00FF00FF00FF00FF00A7
:10E18000FF00FF00FF00FF00FF00FF00FF00FF0097
:10E19000FF00FF00FF00FF00FF00FF00FF00FF0087
:10E1A000FF00FF00FF00FF00FF00FF00FF00FF0077
:10E1B000FF00FF00FF00FF00FF00FF00FF00FF0067
:10E1C000FF00FF00FF00FF00FF00FF00FF00FF0057
:10E1D000FF00FF00FF00FF00FF00FF00FF00FF0047
:10E1E000FF00FF00FF00FF00FF00FF00FF00FF0037
:10E1F000FF00FF00FF00FF00FF00FF00FF00FF0027
:020000040001F9
:04000E00A40FFF1E1E
:020000040001F9
:08000000FF3FFF3FFF3FFF3F00
:00000001FF
